:100000000C947B000C944B200C9424200C94A300A3
:100010000C94A3000C94A3000C94A3000C94A300D4
:100020000C94A3000C94A3000C94A3000C94A300C4
:100030000C94A3000C94A3000C94A3000C94A300B4
:100040000C94DA1F0C94A3000C9498200C9472204A
:100050000C94A3000C94A3000C94A3000C94A30094
:100060000C94CA200C94A30000000000230026007A
:10007000290000000000240027002A0000000000E2
:10008000250028002B0004040404040404040202D4
:100090000202020203030303030301020408102007
:1000A0004080010204081020010204081020000012
:1000B0000008000201000003040700000000000027
:1000C0000000000020410000C84200401C4620BC47
:1000D000BE4CCA1B0E5AAEC59D74CDCCCC3D0AD7C2
:1000E000233C17B7D13877CC2B329595E6241FB136
:1000F0004F0AE921712C11241FBECFEFD8E0DEBFDB
:10010000CDBF12E0A0E0B1E0E4E4F7E602C0059064
:100110000D92A03DB107D9F725E0A0EDB2E001C0F6
:100120001D92A63AB207E1F710E0CAE7D0E004C09A
:100130002197FE010E94D82EC937D107C9F70E9426
:10014000CA220C9495330C940000CF93DF93EC01FA
:10015000FA013296E60FF71FDC019D012C1B3D0BC7
:10016000CF01861B970B4D91442311F04193F5CF9E
:10017000AC01421B530B640F751FFB013297308398
:1001800061507109FB012083DF91CF910895809127
:10019000370590913805009711F480E02FC0DC01FD
:1001A000ED91FC910688F789E02D099520915A057B
:1001B00030915B0581111FC0232B79F78DEF9FEFE5
:1001C00090935B0580935A0580913705909138058F
:1001D000DC01ED91FC910680F781E02D099580917D
:1001E000370590913805DC01ED91FC910488F58983
:1001F000E02D0995D2CF81E0232B79F608958CBDAF
:100200009DBD089520E3FC0120833296862F8295C0
:100210008F706F706A3030F4605D6293682F811167
:10022000F5CF0895695CF9CFFC01818D928D089519
:100230000895FC01538D448D252F30E0842F90E0EC
:10024000821B930B541710F0CF96089501970895D1
:10025000FC01918D828D981761F0A28DAE0FBF2F9A
:10026000B11D5D968C91928D9F5F9F73928F90E0F0
:1002700008958FEF9FEF0895FC01918D828D98175F
:1002800031F0828DE80FF11D858D90E008958FEF9C
:100290009FEF0895FC01918D228D892F90E0805C65
:1002A0009F4F821B91098F7399270895FC01A48D9C
:1002B000A80FB92FB11DA35ABF4F2C91848D90E088
:1002C00001968F739927848FA689B7892C93A0896B
:1002D000B1898C91837080648C93938D848D9813F5
:1002E00006C00288F389E02D80818F7D8083089588
:1002F000EF92FF920F931F93CF93DF93EC0181E076
:10030000888F9B8D8C8D98131AC0E889F98980811C
:1003100085FF15C09FB7F894EE89FF896083E8894F
:10032000F98980818370806480839FBF81E090E041
:10033000DF91CF911F910F91FF90EF900895F62ECE
:100340000B8D10E00F5F1F4F0F731127E02E8C8D68
:100350008E110CC00FB607FCFACFE889F9898081AD
:1003600085FFF5CFCE010E945601F1CFEB8DEC0F4A
:10037000FD2FF11DE35AFF4FF0829FB7F8940B8FCA
:10038000EA89FB8980818062CFCFCF93DF93EC0134
:10039000888D8823B9F0AA89BB89E889F9898C916D
:1003A00085FD03C0808186FD0DC00FB607FCF7CF29
:1003B0008C9185FFF2CF808185FFEDCFCE010E9429
:1003C0005601E9CFDF91CF9108958EE494E00E9429
:1003D0004A0121E0892B09F420E0822F089580E072
:1003E00090E0892B29F00E94E50181110C94000016
:1003F0000895833081F028F4813099F08230A9F09B
:1004000008958730A9F08830C9F08430B1F4809124
:1004100080008F7D03C0809180008F778093800063
:10042000089584B58F7784BD089584B58F7DFBCF03
:100430008091B0008F778093B00008958091B000D4
:100440008F7DF9CF1F93CF93DF93282F30E0F901F1
:10045000E255FF4F8491F901E656FF4FD491F9011F
:10046000EA57FF4FC491CC23A9F0162F81110E94A7
:10047000F901EC2FF0E0EE0FFF1FE458FF4FA591BC
:10048000B4918FB7F894EC91111108C0D095DE2388
:10049000DC938FBFDF91CF911F910895DE2BF8CFB2
:1004A000CF93DF9390E0FC01E656FF4F24918A57EB
:1004B0009F4FFC0184918823D1F090E0880F991F11
:1004C000FC01EE58FF4FA591B491FC01E458FF4F99
:1004D000C591D491623071F49FB7F8943C91822F0A
:1004E000809583238C93E8812E2B28839FBFDF91F7
:1004F000CF9108958FB7F894EC912E2B2C938FBF4A
:10050000F6CF3FB7F89480912C0490912D04A091E0
:100510002E04B0912F0426B5A89B05C02F3F19F0DB
:100520000196A11DB11D3FBFBA2FA92F982F882773
:10053000BC01CD01620F711D811D911D43E0660F4D
:10054000771F881F991F4A95D1F708958F929F9220
:10055000AF92BF92CF92DF92EF92FF924B015C017C
:100560000E9481026B017C010E9481026C197D094D
:100570008E099F09683E734081059105A8F321E02B
:10058000821A9108A108B10888EEC80E83E0D81E2F
:10059000E11CF11C81149104A104B10429F7FF901E
:1005A000EF90DF90CF90BF90AF909F908F90089585
:1005B0002FB7F894609128047091290480912A043F
:1005C00090912B042FBF0895EF92FF920F931F93EA
:1005D000CF93DF9300D000D0CDB7DEB7FA0120E093
:1005E0008E010F5F1F4F9E2F9F77EE0FEF2FEE1F95
:1005F000FF0BF195309709F09068D801A20FB11D5B
:100600009C932F5F309779F730E0FB01E21BF30BEF
:100610008483FB01E21BF30B3596D801CD01801BCF
:10062000910B821793071CF48D918193F7CF2F5F65
:100630003F4F80913705909138058901040F151FB0
:10064000621B730B6B5F7F4FDC01ED91FC910280AD
:10065000F381E02DA80109957C010E94D8026093E6
:10066000430570934405809345059093460581E0CA
:100670000E151F0509F080E00F900F900F900F905E
:10068000DF91CF911F910F91FF90EF9008958F927E
:100690009F92AF92BF92CF92DF92EF92FF92CF9351
:1006A000DF93EC010E94D8024B015C018091370579
:1006B00090913805DC01ED91FC910084F185E02DED
:1006C0000995892BB9F40E94D8026B017C01C818E6
:1006D000D908EA08FB0820913F0530914005A8EEB3
:1006E000B3E00E94C22EC616D706E806F906F0F25D
:1006F00080E00DC08091370590913805DC01ED91C7
:10070000FC910284F385E02D0995888381E0DF91D7
:10071000CF91FF90EF90DF90CF90BF90AF909F90E0
:100720008F9008952F923F924F925F926F927F9297
:100730008F929F92AF92BF92CF92DF92EF92FF92F1
:100740000F931F93CF93DF93CDB7DEB72A970FB6E2
:10075000F894DEBF0FBECDBF1C018091390590918A
:100760003A050E94470381111CC060E070E0CB0194
:100770002A960FB6F894DEBF0FBECDBFDF91CF91A2
:100780001F910F91FF90EF90DF90CF90BF90AF90AF
:100790009F908F907F906F905F904F903F902F90A1
:1007A0000895E0913905F0913A05D0801982EE2440
:1007B000E394F12C812C912C5401412C512C3201C9
:1007C0004394CE0101960E944703882371F287016A
:1007D0000F5F1F4F8981E0913905F0913A05EE0DC9
:1007E000FF1D8083E981AE2FAF77B0E0A3019201B6
:1007F0000E94562E860E971EA81EB91E37E0440C86
:10080000551C661C771C3A95D1F7E7FD3FC0BD2DFE
:10081000B07FBE838FEF800FF1018083B03309F08A
:100820004CC08091390590913A05800F911F0E942C
:100830004703882309F499CF2091390530913A056F
:10084000C7010296820F931F0E944703882309F471
:100850008CCF0E5F1F4FE0913905F0913A05D10121
:100860008C91DF01A80FB11D11968C91119790E02A
:10087000982F882712962C91820F911D208121FD9F
:100880000296F2E0E0E030E020E01DC078010530A3
:10089000110509F096CF8FEF9FEF90935B05809342
:1008A0005A058091370590913805DC01ED91FC9156
:1008B0000488F589E02D099558CFF0E0E0E030E0BC
:1008C00020E090E080E070E060E0CF2EDE2EE32EAE
:1008D000F22E28013B014C185D086E087F084A8201
:1008E0005B826C827D822C01712C612C4F82588638
:1008F00069867A864A805B806C807D804C0C5D1CAA
:100900006E1C7F1CC814D904EA04FB0408F046C01E
:10091000CE0101960E944703882309F426CF8091D7
:10092000580590915905009711F12E812033F9F463
:10093000D1012C914EEF5FEF6FEF7FEF421B51091A
:1009400061097109440E551E661E771E2F81388578
:1009500049855A85241535054605570540F4DC01BF
:10096000ED91FC910190F081E02D698109958091D4
:100970003B0590913C050817190750F48981E091D7
:100980003905F0913A05E00FF11F80830F5F1F4F8B
:10099000BFEFCB1ADB0AEB0AFB0AACCF80915805FC
:1009A00090915905892B69F480913B0590913C0504
:1009B000B0E0A0E084159505A605B70510F410E099
:1009C00000E0B80190E080E0D3CE80918703909161
:1009D0008803891B990B0895089508950895AF928F
:1009E000BF92CF92DF92EF92FF920F931F93CF931C
:1009F000DF936C017B018B01040F151FEB015E017E
:100A0000AE18BF08C017D10759F06991D601ED9112
:100A1000FC910190F081E02DC6010995892B79F7B1
:100A2000C501DF91CF911F910F91FF90EF90DF9063
:100A3000CF90BF90AF9008952091F202260F3327F8
:100A4000331F21323105ECF42091CF03FC0190E0FB
:100A500080E0243069F082E00895A091F2022191B3
:100A6000AC014E525D4FA40FB52FB11D2C930196D2
:100A7000861798F38091F202680F6093F20280E08B
:100A8000089581E008951092CF0381E08093CE0312
:100A90001092A90361E082E10E94220261E083E1F9
:100AA0000E942202E9EBF0E080818E7F80838081CA
:100AB0008D7F808380E28093B80085E48093BC00C2
:100AC0000895CF93DF9391E09093D1028823B9F0FA
:100AD000C091B800D091BA008091BC008A7B80930D
:100AE000BC0060E082E10E94220260E083E10E949B
:100AF00022020E944305D093BA00C093B800DF9150
:100B0000CF910895E091880380918703E81730F42E
:100B1000F0E0E757FC4F808190E008958FEF9FEF62
:100B2000089590918803809187032FEF3FEF9817E6
:100B300048F4E92FF0E0E757FC4F208130E09F5F59
:100B400090938803C9010895CF92DF92EF92FF92AC
:100B50000F931F93CF93DF937C01CB018A012091E8
:100B6000F803222389F0EB016B01C40ED51ECC15CE
:100B7000DD0569F06991D701ED91FC910190F0815B
:100B8000E02DC7010995F3CF642F0E941C05C80111
:100B9000DF91CF911F910F91FF90EF90DF90CF9059
:100BA0000895CF93DF931F92CDB7DEB7698320916D
:100BB000F8032223F9F02091F503203258F021E0C8
:100BC00030E0FC013383228390E080E00F90DF91DE
:100BD000CF9108958091F603E82FF0E0EB52FC4F9F
:100BE000998190838F5F8093F6038093F50381E072
:100BF00090E0ECCF61E0CE0101960E941C05F7CF9A
:100C0000FC0120812EBD9B012150310941F0518111
:100C10000DB407FEFDCF4EB55EBD4193F5CF6150DB
:100C20007109860F971F0DB407FEFDCF2EB5FC018D
:100C300020830895E0911A03F0911B038081909125
:100C40001903892B80830895E0911A03F0911B0307
:100C500090818091190380958923808308958EBDAA
:100C600000000DB407FEFDCF8EB50895AF92BF9280
:100C7000CF92DF92EF92FF920F931F93CF93DF9368
:100C8000CDB7DEB728970FB6F894DEBF0FBECDBF45
:100C90008C017B016A0180914C048333E1F458019B
:100CA000A40EB51EA016B10609F46FC00E9424065A
:100CB00080EF0E942F06812F0E942F06802F0E9416
:100CC0002F060F5F1F4FF70181917F010E942F06B2
:100CD0000E941A06E7CF5B01A40EB51E8433C1F44F
:100CE0000E94240619830A838D2D80688B83CC8211
:100CF00064E070E0CE0101960E940006AE14BF04CD
:100D000009F441C0F70181917F010E942F06F6CFBF
:100D10000E9424060F3F110509F028F419820A8366
:100D200084E08B830CC017FD17C019820A8333E05F
:100D3000169507953A95E1F7007E0C600B8386E0E7
:100D4000C816D104A0F5F701DE011496EA15FB05DB
:100D500099F081918D93FACFC80126E096958795F9
:100D60002A95E1F7807E19830A830115104C10F44F
:100D70008461D7CF8C61D5CFB6016D5F7F4FCE0137
:100D800001960E9400060E941A06C60128960FB618
:100D9000F894DEBF0FBECDBFDF91CF911F910F91B1
:100DA000FF90EF90DF90CF90BF90AF90089563E0F9
:100DB00070E0CE0101960E940006F70181917F014B
:100DC0000E942F06AE14BF04C1F7DDCFCF93DF938F
:100DD0001F92CDB7DEB7898341E050E0BE016F5F5F
:100DE0007F4F90E080E00E9436060F90DF91CF9118
:100DF000089590E020914C04233339F40C96982FF9
:100E0000990F990F990F80E008954896F8CFDA016D
:100E1000E0911D03F0E0FE2FEE27E60FF71F90E0B4
:100E2000982F8827A901BD018E0F9F1F0C943606AD
:100E3000CF93DF9300D0CDB7DEB779836A8322E00A
:100E400030E0AE014F5F5F4F60E170E00E94070746
:100E50000F900F90DF91CF910895CF93DF9300D043
:100E6000CDB7DEB779836A8322E030E0AE014F5F11
:100E70005F4F64E070E00E9407070F900F90DF91D2
:100E8000CF910895CF93DF931F92CDB7DEB7209116
:100E90001D0330E0322F2227260F371F90E0982FB6
:100EA0008827498341E050E0BE016F5F7F4F820F8A
:100EB000931F0E9436060F90DF91CF910895CF9334
:100EC000DF931F92CDB7DEB76983DC01ED91FC9112
:100ED0000280F381E02D41E050E0BE016F5F7F4F63
:100EE00009950F90DF91CF910895FC019485FB0146
:100EF0008485981303C081E0943008F080E0089561
:100F0000CF93DF931F92CDB7DEB76983DC01ED91FC
:100F1000FC910280F381E02D41E050E0BE016F5F63
:100F20007F4F09950F90DF91CF91089544E050E0F5
:100F3000BC018FE090E00C9436060895FF920F9369
:100F40001F93CF93DF93EB01FC01178A168A2A8146
:100F5000211109C02B81211106C02C81211103C050
:100F60002D81222301F141155105E9F08A01FC018F
:100F7000F08C80E591E00E94FF00AE014E5F5F4F74
:100F800024E030E06CE070E08F2D0E940707B8018C
:100F90008F2D0E94180781E090E0DF91CF911F9183
:100FA0000F91FF90089580E0F7CFFC01848595852F
:100FB0000895FC018489958908952FE232E0FC01AF
:100FC00031832083FB014089518962897389FC0147
:100FD00042835383648375830895DC01ED91FC9112
:100FE000048CF58DE02D0994EF92FF920F931F93DF
:100FF000CF93DF93EC018B017A010E94D802688BBA
:10100000798B8A8B9B8B8C819D81DC01ED91FC918E
:101010000280F381E02DA701B801DF91CF911F91EC
:101020000F91FF90EF9009941F93CF93DF93EC0102
:10103000162F0E94D802688B798B8A8B9B8B8C81B0
:101040009D81DC01ED91FC910190F081E02D612FFB
:10105000DF91CF911F910994089590E080E0089569
:1010600080339CF08A3324F08F3524F08B3724F4BE
:1010700081E0089581344CF08B35D4F393ED980FD3
:1010800081E09230B0F380E008958B32B9F7F0CF71
:10109000FC01808581110AC0A581B681CD01019630
:1010A000968385838C91878381E0808787810895EB
:1010B0009F92AF92BF92CF92DF92EF92FF920F93E7
:1010C0001F93CF93DF9300D000D01F92CDB7DEB730
:1010D0008C010E944808D82ED80118961C92F12C39
:1010E000E12C70EFC72EC8010E944808F801108655
:1010F000D81609F4C6C0811119C0F801E55BFF4F8D
:1011000082E090E09183808380E00F900F900F90B9
:101110000F900F90DF91CF911F910F91FF90EF9063
:10112000DF90CF90BF90AF909F9008958C3509F0DD
:101130009DC0C8010E9448088823F9F2E1E3F2E06B
:10114000853709F087C0D80118961C9264E0962E66
:10115000B12CA12CC8010E944808882371F2813467
:101160004CF48053803148F0F801E55BFF4F83E099
:1011700090E0C8CF8F7D8753F5CF54E0AA0CBB1CFD
:101180005A95E1F7A82AF80110869A949110E2CFB7
:10119000C501985D8115944020F4750123E0F22289
:1011A000A2CFC5019C5D8115944028F5B3E0BB2218
:1011B000C701982F8827990F990F8A299B29B0E09A
:1011C000A0E01196198280389105A105B105B8F407
:1011D0008A83FE0133968291882309F484CFD80153
:1011E0004D915C9111979A012F5F3F4F2D933C9346
:1011F000DA018C93F0CFC501B0E0A0E0E3CF282F57
:101200002F7320682A8336E0B695A7959795879522
:101210003A95D1F78032910528F4806C8B83FE01DA
:101220003496D9CF282F2F7320682B8326E09695EC
:1012300087952A95E1F78031910528F4806E8C839B
:10124000FE013596C8CF80688C83CD82FE0136962C
:10125000C2CF32969081992309F486CF8913F9CFB2
:101260008181882309F480CFF8011086D801ED919F
:10127000FC9111979F012F5F3F4F2D933C938083EB
:1012800032CFD8010190F081E02DCF0101968D93EE
:101290009C93108281E039CF1F93CF93DF93EC01B1
:1012A000162F0E944808811306C0188681E0DF913E
:1012B000CF911F91089580E0FACFCF93DF93EC0197
:1012C000CE010E9448088B303CF489304CF48823CE
:1012D00049F081E08C8310C08D3011F08032C9F765
:1012E0001886EECF8C8181110AC081E090E0C55B49
:1012F000DF4F9983888380E0DF91CF91089582E06A
:1013000090E0F5CF60E084E00E94220260E273E0AA
:1013100080E090E00E94A60261E084E00E94220248
:1013200060E08EE00C942202CF93DF93DC01EB01AE
:10133000EC81FD818A819B810896E817F90740F4CA
:1013400081E08887F0E0E0E0CF01DF91CF91089560
:101350003897FD83EC833097B9F31296CD91DC91E9
:101360001397209791F0CF018C1B9D0B23E095954F
:1013700087952A95E1F78D831396FC93EE93129748
:101380001582148217821682DFCF1196FC93EE939A
:10139000F3CFFC01768765870895DC01ED91FC9120
:1013A000068CF78DE02D099591E089270895862F09
:1013B000089581E08627089521E0FC01848584302A
:1013C00008F020E0822F0895CF92DF92EF92FF92F3
:1013D0000F931F93CF93DF937C01EB018A010E944F
:1013E000C700882309F440C0C0903B05D0903C055D
:1013F000B601C7010E941B2D9801295F3F4F820F44
:10140000931FC816D90680F16091390570913A058D
:1014100045E050E0C7010E94A5007E01E00EF11EEC
:10142000FE01EC01CE1BDF0BAE014E0F5F1F609182
:10143000390570913A05EE16FF0631F02191640FDF
:10144000751FDB012C93F0CF05501109A801480F3F
:10145000591F81E3DF91CF911F910F91FF90EF9082
:10146000DF90CF900C94E40280E0DF91CF911F9148
:101470000F91FF90EF90DF90CF900895CF93C091A0
:101480004D0490E080E00E94212EC81729F06C2FB7
:1014900090E080E00E94292E81E090E0CF910895B5
:1014A000CF93DF93E1EBF0E08491EDE9F0E0D491AC
:1014B000E9E8F0E0C491CC2379F081110E94F901B0
:1014C000EC2FF0E0EE0FFF1FE859FF4FA591B4910C
:1014D000EC91ED2381E009F480E08093000190918C
:1014E0001E0481110FC0911112C060E088E00E94BB
:1014F000220210924D0481E080931E04DF91CF916F
:101500000C943E0A911103C081E080931E04DF9188
:10151000CF910895AF92BF92CF92DF92EF92FF9258
:101520000F931F93CF93DF9300D000D0CDB7DEB7DA
:101530008C016B017A0180914C048333E9F45B01E7
:101540006801C40ED51EC016D106A9F10E9424065A
:101550008FE00E942F06812F0E942F06802F0E946D
:101560002F060F5F1F4F80E00E942F06F501819329
:101570005F010E941A06E7CF843369F50E942406B2
:1015800019830A838F2D8F778B83EC8264E070E060
:10159000CE0101960E940006A70170E060E0C6013E
:1015A0000E94E830E114F10421F0B701C6010E9465
:1015B00000060E941A06C7010F900F900F900F901F
:1015C000DF91CF911F910F91FF90EF90DF90CF901F
:1015D000BF90AF9008950E9424060F3F110509F0B7
:1015E00030F419820A831B8263E070E0D1CF17FDCB
:1015F0000BC019820A8333E0169507953A95E1F7F7
:10160000007E08600B83F0CFC80126E09695879591
:101610002A95E1F7807E19830A830115104C18F48E
:1016200080618B83E1CF8861FCCFCF93DF931F92E2
:10163000CDB7DEB720911D0330E0322F2227260FD1
:10164000371F90E0982F882741E050E0BE016F5F80
:101650007F4F820F931F0E948A0A89810F90DF912A
:10166000CF910895CF93C82F462F61E070E00E947C
:10167000420761E070E08C2F0E94150B8111F9CFB9
:10168000CF910895CF93C82F80E591E00E94FF008D
:1016900068E070E08C2FCF910C94320BCF93C82F61
:1016A00080E591E00E94FF0060E170E08C2FCF9117
:1016B0000C94320BCF93DF93EC01888D843020F4AF
:1016C0000E944E0B84E0888FDF91CF910895CF93D5
:1016D000C82F80E591E00E94FF0063E070E08C2F4E
:1016E000CF910C94150BCF93DF93EC018C85843054
:1016F000D0F40E94670B843189F0882379F0883117
:1017000069F021E08C3159F4E881F9810084F18598
:10171000E02DCE01099521E0892B09F420E0822FEC
:10172000DF91CF91089580E0FBCFCF92DF92EF92CF
:10173000FF92CF93DF93EC018C85843068F40E9494
:10174000420B0E94D8026B017C018C850E94670BC2
:10175000811109C084E08C87DF91CF91FF90EF90D9
:10176000DF90CF90089561E070E080E090E00E940B
:10177000A6020E94D802AB01BC014C195D096E099A
:101780007F098D859E85B0E0A0E0481759076A075C
:101790007B07D8F28C850E944E0BDCCFCF93FC01E7
:1017A000C08D80E591E00E94FF0060E270E08C2F28
:1017B0000E94320B62E070E08C2F0E94150B84FDBA
:1017C00016C062E070E08C2F0E94150B83FF0AC0E8
:1017D00048E162E070E08C2F0E94420780E090E0D8
:1017E000CF91089580E591E00E94FF00E3CF40E1B2
:1017F00062E070E08C2F0E94420781E0F0CFCF932F
:10180000DF931F92CDB7DEB741E050E0BE016F5FBE
:101810007F4F90E080E00E948A0A89810F90DF91DB
:10182000CF910895CF93DF93C4E1D0E00E94FF0BE6
:10183000882361F061E070E080E090E00E94A60201
:101840002197A1F780E0DF91CF91089581E0FBCF50
:101850001F93CF93DF931F92CDB7DEB7182F80E58C
:1018600091E00E94FF00812F0E94F90627E0129F5D
:10187000F0011124E05DFB4F22813381377041E09C
:1018800050E0BE016F5F7F4F820F931F0E948A0A54
:1018900089810F90DF91CF911F910895FC01808D78
:1018A000843040F4218D328D232B21F00E94280CAE
:1018B00090E008958FEF9FEF0895CF93DF93FC01A1
:1018C0002485243028F08FEF9FEFDF91CF9108958A
:1018D000EC010190F081E02D0084F185E02D099567
:1018E000892B89F38C850E94280C90E0EECFDA01D9
:1018F000E0911D03F0E0FE2FEE27E60FF71F90E0CA
:10190000982F8827A901BD018E0F9F1F0C948A0A6A
:101910008F929F92AF92BF92CF92DF92EF92FF92FF
:101920001F93CF93DF93CDB7DEB72C970FB6F89404
:10193000DEBF0FBECDBF20914C0414E0222339F14D
:101940006B017C0180E591E00E94FF005E0127E0D1
:10195000A20EB11C450110E063E070E0812F0E94EF
:10196000150BF40181934F01882349F11F5F143057
:1019700099F710E0F50181915F018D31D9F088313F
:10198000C9F08A518230B0F01F5F143099F7812F6F
:101990002C960FB6F894DEBF0FBECDBFDF91CF916E
:1019A0001F91FF90EF90DF90CF90BF90AF909F90EE
:1019B0008F90089560E170E0812F0E94320BA12E7C
:1019C000B12C80EF91E00197F1F742E870E060E020
:1019D000812F0E9442074FEF62E070E0812F0E944A
:1019E0004207B601C114D10491F480910B0190918A
:1019F0000C0101968115F0EC9F0708F45CC09093F0
:101A00000C0180930B0160910B0170910C01812FEF
:101A10000E942D0786E0E7E1F1E0DE0111960190DA
:101A20000D928A95E1F7F70183818F778C8384810A
:101A30008D8385818E83A7014E5F5F4F24E030E068
:101A40006CE070E0812F0E940707B601812F0E9491
:101A5000180726E030E0AE014F5F5F4F66E070E0B0
:101A6000812F0E94070761E070E0812F0E94320BF6
:101A700027E02A9DC0012B9D900D11249C01205D23
:101A80003B4F7901F9011182108222E030E0AE0172
:101A9000455F5F4F68E270E0812F0E94770C8B8575
:101AA0009C85982789279827F7019383828316823C
:101AB000158214826CCF80E090ECA1CFCF92DF92A0
:101AC000EF92FF920F931F93CF93DF9300D000D03C
:101AD00000D0CDB7DEB78C016B017A01FC01808D9F
:101AE000843010F40E944E0B8FE292E09A83898337
:101AF000F60182819381A481B5818B839C83AD8320
:101B0000BE83B701CE0101960E94880CF801808F38
:101B10008430A0F4F586E486128E118E81E026963C
:101B20000FB6F894DEBF0FBECDBFDF91CF911F91EE
:101B30000F91FF90EF90DF90CF90089580E0EFCF6E
:101B4000AF92BF92CF92DF92EF92FF920F931F93CB
:101B5000CF93DF9300D000D000D0CDB7DEB7082FF1
:101B60006B0180E591E00E94FF009E012F5F3F4FD7
:101B70007901590110E063E070E0812F0E94150B9C
:101B8000F50181935F01882341F11F5F143099F7BC
:101B900010E0F70181917F018D31D1F08831C1F0E2
:101BA0008A518230A8F01F5F143099F7812F269652
:101BB0000FB6F894DEBF0FBECDBFDF91CF911F915E
:101BC0000F91FF90EF90DF90CF90BF90AF9008956E
:101BD00060E170E0812F0E94320BE12EF12C80EF4A
:101BE00091E00197F1F7402F70E060E0812F0E94B3
:101BF00042074FEF62E070E0812F0E944207B6017A
:101C0000CD2889F480910B0190910C0101968115EA
:101C1000F0EC9F0798F190930C0180930B01609179
:101C20000B0170910C01812F0E942D0761E070E083
:101C3000812F0E94320B27E02E9DC0012F9D900D19
:101C400011249C01205D3B4F7901F9011182108222
:101C500022E030E0AE014B5F5F4F68E270E0812F21
:101C60000E94770C8D819E81982789279827F701FC
:101C70009383828316821582148298CF80E090EC41
:101C8000CACFCF92DF92EF92FF921F93CF93DF9351
:101C9000EC017B016A018C85843048F40E94670B5B
:101CA000882319F08C850E94420B84E08C87F70111
:101CB00082819381A481B5810097A105B10551F47A
:101CC00090E080E0DF91CF911F91FF90EF90DF9047
:101CD000CF9008958F3F9F4FAF4FBF4F89F38091B3
:101CE0004C04811103C084E08C87EACF70E060E08F
:101CF00081E20E94A00D182F8C87843008F780E5C0
:101D000091E00E94FF00A7014E5F5F4F24E030E0AA
:101D10006CE070E0812F0E940707B601812F0E94BE
:101D2000180764E070E0812F0E94320B0E94D802F5
:101D30006B017C018C850E94670B873109F18C3126
:101D4000F9F0882309F4BCCF0E94D802AB01BC0192
:101D50004C195D096E097F098D859E85B0E0A0E074
:101D600084179507A607B70738F061E070E080E0B8
:101D700090E00E94A602DECF8C850E944E0BB3CF6E
:101D800081E090E09FCF0F931F93CF93DF93EC01FF
:101D90008B01888D843010F40E944E0B80914C048E
:101DA000811107C094E0988FDF91CF911F910F911F
:101DB0000895B80182E00E94A00D888F843030F42D
:101DC0001D870C871A8E198E81E0EECF80E0ECCF54
:101DD0007F928F929F92AF92BF92CF92DF92EF92BB
:101DE000FF920F931F93CF93DF9300D0CDB7DEB751
:101DF000782E8B014A01590122E030E0AE014F5F9D
:101E00005F4F64E270E00E94770CE980FA80FE2464
:101E1000EF24FE24E00EF11E9701377040914C0430
:101E2000072D10E0433309F042C0085F1F4F102F09
:101E30000027110F110F110FC901800F911F473398
:101E4000C9F1A9014A0D5B1D4130584098F160E08D
:101E500078E06B01C21AD30AA601B4010E943606CB
:101E6000A5014C195D09B4016C0D7D1DC8010E94CE
:101E70003606EA0CFB1CF982EA8222E030E0AE0171
:101E80004F5F5F4F64E270E0872D0E9407070F905D
:101E90000F90DF91CF911F910F91FF90EF90DF9006
:101EA000CF90BF90AF909F908F907F900895005FEC
:101EB0001F4FBDCFA501B401DACFEF92FF921F9360
:101EC000CF93DF9300D0CDB7DEB7182F22E030E0FC
:101ED000AE014F5F5F4F60E270E00E94770CE980D7
:101EE000FA80FE24EF24FE2422E030E0AE014F5FB2
:101EF0005F4F60E270E0812F0E94770C89819A81A8
:101F0000982789279827E816F90689F487E0189F0B
:101F1000F0011124E05DFB4FF582E482C7010F90D0
:101F20000F90DF91CF911F91FF90EF9008957C016A
:101F3000DBCF1F93CF93DF93182F80E591E00E94B2
:101F4000FF00812F0E945D0FEC0163E070E0812FA4
:101F50000E94150B873121F08C3111F0D0E0C0E0E8
:101F6000CE01DF91CF911F910895CF93DF93EC01C4
:101F70008C85843060F40E94670B873111F08C31BE
:101F800031F48C850E94990F8115984088F3DF9178
:101F9000CF910895FC018485843010F40C94990F3E
:101FA00090E080E008959F92AF92BF92CF92DF922F
:101FB000EF92FF920F931F93CF93DF938C015B01FE
:101FC000942EE52EFC01C688D788F08C80E591E040
:101FD0000E94FF008F2D0E945D0FC92DDE2D8C17F2
:101FE0009D0708F4EC019E01A501B6018F2D0E940A
:101FF000E80EF801868997898C0F9D1F978B868B39
:10200000CE01DF91CF911F910F91FF90EF90DF9064
:10201000CF90BF90AF909F9008958F929F92AF9274
:10202000BF92CF92DF92EF92FF920F931F93CF93C5
:102030006C015B018A01FC01C485C430F0F57A01B2
:102040004130584018F0E12C88E0F82E80E591E00E
:102050000E94FF008C2F0E945D0F4C0163E070E036
:102060008C2F0E94150B873111F08C3149F58E149D
:102070009F0460F380E591E00E94FF009701A501B5
:1020800070E060E08C2F0E94E80E60E270E08C2F20
:102090000E94320B62E070E08C2F0E94150B84FDD1
:1020A00017C063E070E08C2F0E94150B81110BC0EC
:1020B00081E090E0F6019383828310E000E010C09D
:1020C000F12CE12CD7CF80E591E00E94FF00E2CF18
:1020D00040E162E070E08C2F0E944207EF2841F35C
:1020E000C801CF911F910F91FF90EF90DF90CF909B
:1020F000BF90AF909F908F900895FF920F931F9382
:10210000CF93DF9300D0CDB7DEB7F82E22E030E0DA
:10211000AE014F5F5F4F66E270E00E94770C09816D
:102120001A8110270127102722E030E0AE014F5F0F
:102130005F4F66E270E08F2D0E94770C89819A8153
:102140009827892798270817190749F4C8010F907D
:102150000F90DF91CF911F910F91FF9008958C0107
:10216000E3CF1F93CF93DF93182F87E0189FE001F1
:102170001124C05DDB4F88819981009761F480E56F
:1021800091E00E94FF00812F0E947D102E81821B12
:10219000910999838883DF91CF911F910895FC0164
:1021A0008485843010F40C94B11090E080E00895A0
:1021B0004F925F927F928F929F92AF92BF92CF92F7
:1021C000DF92EF92FF920F931F93CF93DF9300D094
:1021D000CDB7DEB7782E6B014A01A82EB12C27E0CF
:1021E000829FC0011124FC01E05DFB4F7F01008153
:1021F000118180E591E00E94FF000815190554F453
:10220000872D0E947D10F70126818C01021B110988
:10221000118300830115110529F563E070E0872D16
:102220000E94150B843159F0882349F001E010E039
:102230008C3111F410E000E0119501951109C801ED
:102240000F900F90DF91CF911F910F91FF90EF9022
:10225000DF90CF90BF90AF909F908F907F905F90D6
:102260004F900895801691060CF4840187E08A9DB2
:10227000F0018B9DF00D1124E05DFB4FE280F380B7
:10228000C114D10451F12701F7E05F22872D0E948C
:10229000F906840D951D20914C04273309F453C091
:1022A0009801240D351D2130384008F44CC020E041
:1022B00038E0490184189508A401B6010E948A0AF1
:1022C0002601480C591C6801C818D908872D0E949E
:1022D000F906A601B2010E948A0AE00EF11E87E00B
:1022E0008A9DF0018B9DF00D1124E05DFB4FF38280
:1022F000E28220813181201B310B31832083868152
:10230000800F912F911D8A3F910510F4232BF1F43A
:1023100087E08A9DF0018B9DF00D1124E05DFB4F5D
:102320001682F982EA8222E030E0AE014F5F5F4F11
:1023300068E270E0872D0E94070760E470E0872D57
:102340000E94320B7CCFA801B601C5CF868377CF20
:10235000CF93DF93FC01218D328D2115310529F4B6
:102360008FEF9FEFDF91CF910895EC01808D4217A1
:10237000530708F0A9010E94D8101816190684F70F
:10238000298D3A8D281B390B3A8F298FEBCF0F936C
:102390001F93CF93DF931F92CDB7DEB7FC01218D42
:1023A000328D232B41F48FEF9FEF0F90DF91CF9170
:1023B0001F910F9108958C0141E050E0BE016F5FC5
:1023C0007F4FFC01808D0E94D810181619065CF70B
:1023D000F801818D928D0197928F818F898190E094
:1023E000E4CFCF93DF931F92CDB7DEB741E050E04B
:1023F000BE016F5F7F4FFC0184850E94D8101816C4
:10240000190634F4898190E00F90DF91CF910895FF
:102410008FEF9FEFF9CFFC018485843010F40C948A
:10242000D81090E080E008950F931F93CF93DF932F
:1024300000D0CDB7DEB7FC0124852430E0F48C0158
:1024400080E591E00E94FF0022E030E0AE014F5FA6
:102450005F4F60E170E0F80184850E94770C89810C
:102460009A819827892798270F900F90DF91CF9115
:102470001F910F91089590E080E0F6CF0F931F9386
:10248000CF93DF9300D0CDB7DEB7FC012485243095
:10249000E0F48C0180E591E00E94FF0022E030E052
:1024A000AE014F5F5F4F64E070E0F80184850E94E9
:1024B000770C89819A819827892798270F900F9008
:1024C000DF91CF911F910F91089590E080E0F6CFBA
:1024D000DC018FE292E08D939D9384E0FB010190FB
:1024E0000D928A95E1F70895EF92FF920F931F9353
:1024F000CF93DF9300D000D0CDB7DEB78C017B0146
:10250000FB0184858430A8F08FE292E0F80191838A
:1025100080831282138214821582C8010F900F905B
:102520000F900F90DF91CF911F910F91FF90EF903F
:10253000089580E591E00E94FF0024E030E0AE01C4
:102540004F5F5F4F6CE070E0F70184850E94770C6D
:10255000BE016F5F7F4FC8010E946812DECF0F93EC
:102560001F93CF93DF93CDB7DEB728970FB6F894BC
:10257000DEBF0FBECDBF8C01D80159964D915C9145
:102580005A974115510551F0ED91FC91048CF58D50
:10259000E02D70E060E0C8010995EECFF801808D74
:1025A0000E94B110892BB1F148E050E0BE016F5F8D
:1025B0007F4FD80158968C910E94D8101816190692
:1025C000F4F4D801509684E0FE01319601900D920A
:1025D0008A95E1F78D8190E0982F88272E81820FD0
:1025E000911DF801958B848B8F81282F30E0322F3D
:1025F00022278885820F932F911D928F818F289695
:102600000FB6F894DEBF0FBECDBFDF91CF911F9103
:102610000F91089590E080E0F2CF4F925F926F9219
:102620007F928F929F92AF92BF92CF92DF92EF9262
:10263000FF920F931F93CF93DF93CDB7DEB76397CE
:102640000FB6F894DEBF0FBECDBF7C016B013A011F
:10265000FB0120E090E080E06AE03191332309F44F
:1026600061C040ED430F4A3008F04DC0689FA001A3
:10267000699F500D1124CA01C097830F911D37FD2A
:102680009A958F3F910549F340F3F70142815381B9
:10269000648175818091FF0490910005A0910105EE
:1026A000B0910205481759076A077B0709F40DC264
:1026B0008701085F1F4F0E94D8026F7077277C5FE9
:1026C000C8010E94C30E813009F004C28FE292E07B
:1026D0009A838983F70182819381A481B5818B8359
:1026E0009C83AD83BE8345E350E0BE016F5F7F4FA7
:1026F000C8010E949E07892BA9F5D12CC12CC801C5
:102700000E945A0B17C03E3209F0BFCF233009F4A4
:10271000BCCFD301A20FB11D12968C932F5F90E016
:1027200080E09BCF233009F0B0CFF3018583CC2428
:10273000C394D12CC60163960FB6F894DEBF0FBECA
:10274000CDBFDF91CF911F910F91FF90EF90DF9060
:10275000CF90BF90AF909F908F907F906F905F9041
:102760004F9008950E94D802F7017783668342E074
:1027700050E0B7016A5F7F4FC8010E94D30F81E02C
:1027800090E09A83898342E050E0BE016F5F7F4F03
:10279000C8010E94D30F80E091E09A83898342E0D0
:1027A00050E0BE016F5F7F4FC8010E94D30F1A82B5
:1027B000198242E050E0BE016F5F7F4FC8010E9466
:1027C000D30F42E050E0BE016F5F7F4FC8010E940F
:1027D000D30F42E050E0BE016F5F7F4FC8010E94FF
:1027E000D30F5601F6018081882301F16501F601BE
:1027F00081912F01882311F08E32B1F446018A189D
:102800009B081814190474F48D8641E050E0BE0151
:10281000635F7F4FC8010E94D30FA401B501C801B7
:102820000E94D30F5201DECF6201E1CF1D8641E04D
:1028300050E0BE01635F7F4FC8010E94D30FC12CDF
:10284000DD24D394DA82C98242E050E0BE016F5F9A
:102850007F4FC8010E94D30FDA82C98242E050E064
:10286000BE016F5F7F4FC8010E94D30FC8010E9455
:10287000CE0B892B09F441CFF3E0AF2EB12C23010D
:1028800022E0420E511CD4C0F70142815381648181
:102890007581808D918DA28DB38D481759076A0778
:1028A0007B0709F008C1848D958DC59709F003C198
:1028B00081A192A15DEFC52EDD24DA940C970CF472
:1028C000ADC04CE050E0BE016F5F7F4FC8010E9479
:1028D000A8118B819C819827892798279A8B898BAF
:1028E000F7014681578129813A814217530709F040
:1028F000E7C097FFE5C08F7092703BEFC32EDD24D9
:10290000DA94892B09F08AC06F8078847624672452
:1029100076242AEFC22EDD24DA946114710409F4BE
:102920007DC0D12CC12C8D819E8198278927982725
:10293000C816D906F8F441E050E0BE01635F7F4F4E
:10294000C8010E94A8114D85442331F050E070E089
:1029500060E0C8010E94A8118D858111ECCF44E090
:1029600050E070E060E0C8010E94A811FFEFCF1AAC
:10297000DF0AD9CF912C812C41E050E0BE016D5E81
:102980007F4FC8010E94A8114B89842F807C09F0D9
:102990006CC0442331F050E070E060E0C8010E9458
:1029A000A8118B898111E8CF42E050E0BE01615F40
:1029B0007F4FC8010E94A81142E050E0BE01635F52
:1029C0007F4FC8010E94A81144E050E070E060E031
:1029D000C8010E94A81142E050E0BE016F5E7F4F27
:1029E000C8010E94A8118F85988949895A89811543
:1029F000914009F043C0CD84DE84DC24CD24DC2466
:102A000081E0C816D104D1F54115544009F04AC0FF
:102A100044E050E0B201C8010E94A81121E0A21ACE
:102A2000B10809F46CCEFFEFCF16DF0609F067CED0
:102A30000E94D8023B014C01C8010E94AF12181637
:102A400019060CF421CF0E94D8026619770988096B
:102A50009909693873418105910548F562E370E091
:102A600080E090E00E94A602E7CF41E050E070E0F5
:102A700060E0C8010E94A8111B8A93CF5427452704
:102A8000542770E060E0C8010E94A811FFEF8F1A80
:102A90009F0A6814790409F06FCF96EFC92EDD24E0
:102AA000DA94BCCFE7EFCE2EDD24DA94B7CFCC2476
:102AB000CA94DC2CB3CF6EEFC62EDD24DA94AECFF1
:102AC0004CEFC42EDD24DA94A9CF8EEFC82EDD247E
:102AD000DA9430CED12CC12C2DCECF92DF92EF9252
:102AE000FF920F931F93CF93DF93CDB7DEB7AF97CE
:102AF0000FB6F894DEBF0FBECDBF7C016A010FE2B6
:102B000012E01A8309831C861B8688EE93E0A0E0FE
:102B1000B0E08D879E87AF87B88B84E491E09A8779
:102B20008987188F0F8B198E1A8E1B8E1C8E84E04E
:102B300089A31BA70AA71CA61DA61EA61FA68091D7
:102B4000230590912405A0912505B09126058EA31B
:102B50009FA3A8A7B9A78B839C83AD83BE83188648
:102B60001F82AE01465D5F4FCE0101960E940D139C
:102B700081309105B1F4D701ED91FC910488F5897C
:102B8000E02D1DA30CA38CA59DA5AEA5BFA58EA36E
:102B90009FA3A8A7B9A7A601BE016C5D7F4FC7017F
:102BA0000995AF960FB6F894DEBF0FBECDBFDF918B
:102BB000CF911F910F91FF90EF90DF90CF900895EC
:102BC000CF92DF92EF92FF920F931F93CF93DF93F9
:102BD000CDB7DEB7AF970FB6F894DEBF0FBECDBF4F
:102BE0008C016B017A018FE292E09A8389831B82C8
:102BF0001C821D821E821C861B8648EE53E060E00C
:102C000070E04D875E876F87788B24E431E03A87E8
:102C10002987988F8F8B198E1A8E1B8E1C8E24E01D
:102C200029A39BA78AA71CA61DA61EA61FA6D8017E
:102C30001C968C91843060F40E94670B882321F0ED
:102C4000F80184850E94420B84E0D8011C968C9385
:102C50008091230590912405A0912505B09126052A
:102C60008EA39FA3A8A7B9A78B839C83AD83BE83A4
:102C700018861F82AE01465D5F4FB601CE010196F8
:102C80000E940D130097C1F0D801ED91FC910684CC
:102C9000F785E02D8FE292E09DA38CA38CA59DA5E6
:102CA000AEA5BFA58EA39FA3A8A7B9A7A701BE01E4
:102CB0006C5D7F4FC8010995AF960FB6F894DEBFE3
:102CC0000FBECDBFDF91CF911F910F91FF90EF907D
:102CD000DF90CF900895FB0101900020E9F7319734
:102CE000AF01461B570BDC01ED91FC910280F38193
:102CF000E02D09948F929F92AF92BF92EF92FF9234
:102D00000F931F93CF93DF93CDB7DEB7A1970FB685
:102D1000F894DEBF0FBECDBF7C01FA01CB0119A232
:102D2000223008F42AE08E010F5D1F4F822E912C75
:102D3000B12CA12CBF01A50194010E94A02EF90184
:102D4000CA016A300CF5605DD8016E938D01232BAA
:102D5000242B252B79F790E080E0109721F0BD011E
:102D6000C7010E946B16A1960FB6F894DEBF0FBE86
:102D7000CDBFDF91CF911F910F91FF90EF90BF904A
:102D8000AF909F908F900895695CDECF8F929F9255
:102D9000AF92BF92CF92DF92EF92FF920F931F9369
:102DA000CF93DF937C01EB016C0182E0C80ED11C54
:102DB0004701E5E08E0E911C10E000E0F601419124
:102DC0006F0150E070E060E02AE0CE010E947A16C8
:102DD0005C01E881F9810190F081E02D6EE2CE0185
:102DE00009958A0D9B1D080F191FC814D90431F7C6
:102DF000F701458150E070E060E02AE0CE010E94DA
:102E00007A16800F911FDF91CF911F910F91FF9044
:102E1000EF90DF90CF90BF90AF909F908F900895EC
:102E200085ED8093BC008091D1039091D203A09155
:102E3000D303B091D4030796A11DB11D23E0B6952D
:102E4000A795979587952A95D1F72091BC0024FDE9
:102E500003C01092CF0308954091D1035091D20343
:102E60006091D3037091D403452B462B472B69F314
:102E70000097A105B10541F02AE12A95F1F700C0BC
:102E80000197A109B109E1CF8091D0030C946105AC
:102E90003F924F925F926F927F928F929F92AF92EA
:102EA000BF92CF92DF92EF92FF920F931F93CF9337
:102EB000DF93CDB7DEB7EA970FB6F894DEBF0FBE4B
:102EC000CDBF7C012A013B0169010E94D8024B0160
:102ED0005C0187010D5B1F4FC8010E94AF121816DD
:102EE00019069CF00E94D802681979098A099B0981
:102EF000461657066806790608F466C162E370E074
:102F000080E090E00E94A602E7CF42E250E0BE01DE
:102F10006F5F7F4FC8010E94A81189818230D1F074
:102F2000312C832DEA960FB6F894DEBF0FBECDBFCD
:102F3000DF91CF911F910F91FF90EF90DF90CF9095
:102F4000BF90AF909F908F907F906F905F904F90C9
:102F50003F900895F801848995898334910501F79C
:102F60006D817E818F8198850E94D12E4B015C01FD
:102F7000F60180829182A282B38246E050E0B701DE
:102F8000685F7F4FCE014D960E94C030892B41F67D
:102F9000F70180819181A281B38188169906AA06E2
:102FA000BB0608F4BDCF84819581A681B7818815C1
:102FB0009905AA05BB0508F4B3CF89899A89AB891D
:102FC000BC8986879787A08BB18B4EEC50E070E070
:102FD00060E0C8010E94A811312CC701829698AB0D
:102FE0008FA7F701B696FAABE9AB08969CAB8BAB13
:102FF00067019AE1C90ED11CBD96FEABEDABC701CE
:10300000429698AF8FABFD97FAAFE9AF4701FEE16B
:103010008F0E911CF801818D928D181619060CF0F7
:1030200080CFC8010E94C7118333910509F4B2C053
:1030300014F58130910509F464C044F4892B51F3EF
:10304000C8010E94C711AC01552775C08330910596
:1030500009F462C00697A1F7C8010E94C711B82EF3
:1030600044E050E0B401C8010E94A811EB2DE450E7
:10307000FF0BAF0160C08A33910509F45FC084F58E
:1030800085339105B1F1C697D9F6C8010E94C711E1
:103090005C01B601CE0189960E9468128BA59CA5A1
:1030A000ADA5BEA5892B8A2B8B2BB1F0EDA9FEA96E
:1030B0004080518062807380B601CE0183960E9469
:1030C00068128DA19EA1AFA1B8A5A5014816590609
:1030D0006A067B0609F0B8CF44E050E0B60118C09C
:1030E0008B33910509F440C08F3F910509F492CFCD
:1030F000A7CFC8010E94C711C8010E94C711382E6E
:1031000089CFC8010E94C71144E050E06FA978AD93
:10311000C8010E94A8117ECFC8010E94C711B82E15
:1031200044E050E069AD7AADC8010E94A8118B2D32
:103130008450990BAC0170E060E0EACFC8010E94B6
:10314000C71144E050E069A97AA9C8010E94A811FA
:10315000F70166A177A180A591A50E94D12E66A353
:1031600077A380A791A756CFC8010E94C71144E05A
:1031700050E06BA97CA9C8010E94A811F70162A5C3
:1031800073A584A595A50E94D12E62A773A784A7D5
:1031900095A740CFC8010E94C71144E050E06FA539
:1031A00078A9C8010E94A811F70162A173A184A1A6
:1031B00095A10E94D12E62A373A384A395A366A7B1
:1031C00077A780AB91AB26CF33243A94AACE7F92D7
:1031D0008F929F92AF92BF92CF92DF92EF92FF9227
:1031E0000F931F93CF93DF93CDB7DEB7A6970FB69C
:1031F000F894DEBF0FBECDBF8C01762E942E852EA7
:1032000020E2A22ECE0101967C01DC01EA2D1D9266
:10321000EA95E9F76801F3E4CF0ED11C8FE292E062
:103220009AA389A38FEF8BA38CA38DA38EA343E4D2
:1032300050E0BE016F5D7F4FC6010E949E07019660
:1032400009F4BFC081E089838A8386E0B82EBB82FF
:103250001C82D80114966D917D918D919C91179748
:103260000E94D12E6D837E838F83988789869A866C
:1032700080E890E09C878B874CE150E0B701C60165
:103280000E94D30FFE0137968AE1DF011D928A95D5
:10329000E9F74801B8E08B0E911CF401D7010190C9
:1032A0000D92BA94E1F740E150E0B701C6010E94E7
:1032B000D30FF7011192AA94E9F796E0A92EB12C49
:1032C00040E250E0B701C6010E94D30FF1E0AF1A0F
:1032D000B108B1F783E6898392E89A8393E59B83EB
:1032E0008C8385E38D8381E08E837F829DE3988745
:1032F00097E099878A8786E0F401DE011B960190AA
:103300000D928A95E1F78CE0898B8A8B62E472E0FA
:10331000CE0143960E94F830D8011B966C91CE01E5
:1033200049960E940201F8016485CE014B960E94E5
:103330000201D8011D966C91CE014D960E940201AA
:103340004EE150E0B701C6010E94D30FB3E07B12FB
:103350001EC082E3898384E08A83F80196859B837B
:1033600097859C8390899D8391899E8396E39F8313
:103370008887828D8987838D8A87848D8B87858DC9
:103380008C874CE050E0B701C6010E94D30F87E361
:10339000898386E08A8391E09B8393E09C838D837D
:1033A0008FE08E838AE38F838BE388878FEF898713
:1033B00049E050E0B701C6010E94D30FC6010E9448
:1033C000CE0BA6960FB6F894DEBF0FBECDBFDF9131
:1033D000CF911F910F91FF90EF90DF90CF90BF9012
:1033E000AF909F908F907F9008952F923F924F9231
:1033F0005F926F927F928F929F92AF92BF92CF9285
:10340000DF92EF92FF920F931F93CF93DF9300D041
:1034100000D000D0CDB7DEB78C010E94C32C2FECBA
:1034200037E040E050E00E94372EDC01CB010196EE
:10343000A11DB11DF80184839583A683B783808382
:103440009183A283B3835801F3E4AF0EB11CC5018D
:103450000E945A0B64E470E0C5010E94C30E8823E9
:1034600009F445C10E94D8022B013C01480182E4C5
:10347000880E911C48EEC42E43E0D42EE12CF12C92
:1034800052E0252E1E821D82D4018C918330B1F131
:10349000811166C0F80184819581A681B78101966A
:1034A000A11DB11D84839583A683B7830E94D80292
:1034B0006419750986099709A70196010E94A02E33
:1034C000A90161E0C8010E94E71881E0D4018C9352
:1034D0008D819E810197C1F20E94D80264197509FD
:1034E00086099709D801D6962D913D914D915C9111
:1034F000D997261737074807590720F6C5010E94B4
:103500005A0BF80184819581A681B7810196A11D8E
:10351000B11D84839583A683B7830E94D802F801E6
:10352000FE9660837183828393838D819E8126962C
:103530000FB6F894DEBF0FBECDBFDF91CF911F91C4
:103540000F91FF90EF90DF90CF90BF90AF909F9042
:103550008F907F906F905F904F903F902F90089545
:103560008430F1F4F80184819581A681B7810196B8
:10357000A11DB11D84839583A683B7830E94D802C1
:103580006419750986099709A70196010E94A02E62
:10359000A90163E0C8010E94E718D4012C9298CFDA
:1035A000813051F5F80142AD53AD64AD75AD9E016A
:1035B0002F5F3F4FC8010E944817382EF2E08F134B
:1035C00090C089819A81AB81BC81F8018483958305
:1035D000A683B7830E94D8026419750986099709E2
:1035E000A70196010E94A02EA90163E0C8010E94D4
:1035F000E718D4013C926CCF823009F069CFF80112
:1036000042AD53AD64AD75AD9E012F5F3F4FC80114
:103610000E944817382EF5E08F135DC0E3E0D40117
:10362000EC93F80182A193A1A4A1B5A1892B8A2BC7
:103630008B2B41F484E893E0A0E0B0E082A393A355
:10364000A4A3B5A3F80186A197A1A0A5B1A5892B34
:103650008A2B8B2B61F482A193A1A4A1B5A1B6956D
:10366000A7959795879586A397A3A0A7B1A7F801DB
:1036700082A593A5A4A5B5A5892B8A2B8B2BA9F48C
:1036800082A193A1A4A1B5A1AC01BD0123E07695CF
:103690006795579547952A95D1F7841B950BA60BEF
:1036A000B70B82A793A7A4A7B5A7F80186A197A1F6
:1036B000A0A5B1A586A797A7A0ABB1AB82A593A5FE
:1036C000A4A5B5A582AB93ABA4ABB5AB81E090E06C
:1036D0009E838D83FDCE96E0891303C0D4011C9296
:1036E000F7CEBFEF3B12F4CEF4011082F1CE1E8272
:1036F0001D821BCF0F931F93CF93DF938B01EC01A0
:103700002097E1F06E817F8160177107B9F0011594
:10371000110541F06115710529F0C8010E94EF30D3
:10372000892B61F08D81882339F028E08202C00165
:103730001124C80FD91FE4CFD0E0C0E0CE01DF9143
:10374000CF911F910F9108954F925F926F927F9248
:10375000BF92CF92DF92EF92FF920F931F93CF937E
:10376000DF93EC018B01E42E0E945D09F82E81119C
:1037700010C0F12C8F2DDF91CF911F910F91FF90F1
:10378000EF90DF90CF90BF907F906F905F904F90C1
:103790000895CE010E944808873209F40DC10CF546
:1037A000823209F409C1CE010E944808B82E6E0188
:1037B000FBE0CF0ED11CE12C36018B2D0E9430088E
:1037C000882309F40EC12FE3E21609F40AC1188612
:1037D000E394D601BD926D01CE010E944808B82E37
:1037E000ECCF8B3509F44AC08B37E9F6F8018481B8
:1037F0008078806284831182108213821282EE208C
:1038000009F44EC01886CE010E945D09882309F490
:10381000B0CF6DE7CE010E944C098111ABCFEA9485
:10382000888199819B838A83CE010E9448088732D0
:1038300009F476C0823209F473C0CE010E944808B0
:10384000D82E0E943008882309F465C01886E881C4
:10385000F981CF01019699838883D082CE010E949D
:103860004808D82E0E9430088111F0CFE881F981F4
:10387000CF01019699838883108258C0D80114968D
:103880008C9114978078806414968C931497119679
:103890001C921E9213961C921E921297E11007C062
:1038A000C55BDF4F86E090E09983888362CF1886FE
:1038B000CE010E945D09882309F45BCF6DE5CE013E
:1038C0000E944C09811156CFEA9469857A85C80116
:1038D0000E949409009729F4C55BDF4F84E090E0D3
:1038E000E3CF4E2DBC01CE010E94A41B882309F416
:1038F00040CFCE010E945D09882309F43ACF6DE5DF
:10390000CE010E944C09811135CF6CE2CE010E949C
:103910004C098111DACFC55BDF4F83E090E0C4CF63
:10392000CE010E945808882309F423CFCE010E94BB
:103930005D09882309F41DCF6AE3CE010E944C097A
:10394000882349F3CA80DB80B601D8018D919C9110
:103950000E947A1BBC01892B79F469857A85C8019C
:103960000E949409FC01892B09F4B6CF84818F77DA
:103970008483D782C682BF014E2DCE010E94A41B34
:10398000882309F4F6CECE010E945D09882309F44C
:10399000F0CE6DE7CE010E944C098111EBCE6CE2B6
:1039A000CE010E944C09882309F4B5CFCE010E94B4
:1039B0005D09811135CFDDCE888199819B838A8312
:1039C000CE010E945808F82E882309F4D2CE2A810D
:1039D0003B81F801848180788460848331832083F3
:1039E000C9CEFE01EE0DF11D13868B858437B1F42F
:1039F000F801848180788660848381E090E0A0E093
:103A0000B0E080839183A283B383F4E0EF1609F4DE
:103A1000B1CEC55BDF4F82E090E046CF863679F4C9
:103A2000D80114968C9114978078866014968C93A4
:103A3000F8011082118212821382F5E0E7CF8E36F0
:103A400021F424E0E212E5CF95CE8B32E1F1F301CF
:103A50008D32D9F5FE013C96BF2C808190ED980FF8
:103A60009A3018F08E3209F056CF6F0120E030E026
:103A7000A901F6018191A0EDEA2EE80E99E09E15CC
:103A800030F12A39A9E93A074A07A9E15A07A8F506
:103A9000AAE0B0E00E94562E9B01AC018E2D90E072
:103AA000B0E0A0E02C013D014094509460947094EB
:103AB000421653066406750600F1280F391F4A1F87
:103AC0005B1F6F01D6CFFE013C96B12CC6CF811192
:103AD00014C0F80184818078BB2041F08A6084831F
:103AE0002083318342835383FB2C44CE88608483BC
:103AF00020833183428353833DCEE12CEAE04E2E76
:103B0000512C612C712C21153105B0E84B07510562
:103B100040F0CA01B901A30192010E94A02EE394D2
:103B2000F2CFF601D6018D916D0190ED980F9A308C
:103B300010F4E394F6CF8E3211F56F01BFEFCB1A7C
:103B4000DB0AF6018FEFC81AD80A808170ED772E54
:103B5000780E99E0971598F02C3CACEC3A07ACE065
:103B60004A07510570F7AAE0B0E00E94562E9B016B
:103B7000AC01270D311D411D511DEA94E2CF80811A
:103B80008F7D853409F08FC081818D32E1F53296C9
:103B90007F2CDF0190E080E0CE2C0E2C000CDD08A5
:103BA0006AE0562EFD016D9060ED660D6A3008F0FA
:103BB00046C0589EB001599E700D1124862D660C8A
:103BC000990BC097860F971FBC016C0D7D1D673246
:103BD000710544F3F80184817720E1F040E050E082
:103BE00060E070E8B11003C040E050E0BA018078B6
:103BF0008C60D80114968C93F801408351836283C2
:103C00007383F72CB7CD8B3219F03196712CC1CF5D
:103C10003296FCCF40E050E060E87FEFB11004C086
:103C200040E050E060E87FE780788C60D80114962F
:103C30008C93F80140835183628373839BCD7720FB
:103C400019F09195819591096081611164CEEC0123
:103C5000CE0DD11DE7FCDA95CA01B9010E94262DCF
:103C60001C161D061CF5E12CC0FF0CC024E0E29ED2
:103C7000F0011124EE53FF4F259135914591549158
:103C80000E94632DD595C795E394209769F7B110ED
:103C90009058F801248120782C60248360837183FC
:103CA0008283938367CD90E080E0CECFD195C1959C
:103CB000D109E12C209759F3C0FF0CC0B4E0EB9E72
:103CC000F0011124E652FF4F259135914591549111
:103CD0000E94632DD595C795E394ECCFFC01248118
:103CE00025FF04C0808191810C947A1B90E080E0D4
:103CF0000895EF92FF920F931F93CF93DF93CDB769
:103D0000DEB7CE56D1090FB6F894DEBF0FBECDBFD9
:103D10000E94C700882309F484C08091D002E9E49E
:103D2000F2E0811102C0ECE4F2E080914D0469E41C
:103D300072E0811102C06CE472E08091F90349E401
:103D400052E0811102C04CE452E0A091FB03B0911B
:103D5000FC038091FA0320E532E0811102C025E5E1
:103D600032E080910001882309F458C085E592E093
:103D7000FF93EF937F936F935F934F93BF93AF93B3
:103D80003F932F939F938F938BE592E09F938F9315
:103D9000CE0101967C019F938F930E94FF3061E0DA
:103DA00070E090E080E00E9403308C010FB6F89440
:103DB000DEBF0FBECDBF009731F0FC01108261E481
:103DC00072E00E94F830B7018EE494E00E946B1616
:103DD0006FEA72E08EE494E00E946B1660913B05FE
:103DE00070913C05C7010E941B2DAC01B70184E214
:103DF00091E00E94E4090115110599F0C801C2592A
:103E0000DF4F0FB6F894DEBF0FBECDBFDF91CF916D
:103E10001F910F91FF90EF900C947A2F80E592E024
:103E2000A7CFC259DF4F0FB6F894DEBF0FBECDBF8C
:103E3000DF91CF911F910F91FF90EF900895CF9355
:103E4000DF93CDB7DEB7CD54D1090FB6F894DEBFFE
:103E50000FBECDBF9B016115710511F421E432E065
:103E600080916B0590916C0590936E0580936D0524
:103E700080917105909172059093700580936F0504
:103E8000109273058091780580788093780580E0A2
:103E900090E0DC01CB0189839A83AB83BC831D82D4
:103EA0003F832E8319868BE695E09B878A872E9623
:103EB0001FAE1EAE2E974AE064E775E0CE01019674
:103EC0000E94A41B2E968EAD9FAD2E97892B61F478
:103ED0008885882329F180917805982F9F779C30D9
:103EE00019F08D778830E1F40E94791EC35BDF4FB3
:103EF0000FB6F894DEBF0FBECDBFDF91CF9108950E
:103F0000F0E0E0E026C081E080934D0461E027C04E
:103F1000F0E0E0E044C081E08093D00261E046C080
:103F200062EB72E084E795E00E946E1E892BE1F05F
:103F300062EB72E084E795E00E946E1EFC01892B23
:103F4000F9F294819F7794509230D0F60190F081ED
:103F5000E02D81818E34B9F210924D0460E088E04A
:103F60000E9422020E943E0A68EB72E084E795E01C
:103F70000E946E1E892B09F4B7CF68EB72E084E7CC
:103F800095E00E946E1EFC01892B11F294819F77AF
:103F90009450923008F0BCCF0190F081E02D8181E7
:103FA0008E3409F4B8CF1092D00260E080E10E9414
:103FB00022029ACF1F920F920FB60F9211242F93C5
:103FC0003F938F939F93AF93BF93809128049091D9
:103FD0002904A0912A04B0912B043091270426E0F3
:103FE000230F2D3758F50296A11DB11D20932704EC
:103FF0008093280490932904A0932A04B0932B045F
:1040000080912C0490912D04A0912E04B0912F0446
:104010000196A11DB11D80932C0490932D04A093B3
:104020002E04B0932F04BF91AF919F918F913F9138
:104030002F910F900FBE0F901F90189529E8230F16
:104040000396A11DB11DD2CF1F920F920FB60F92F2
:1040500011242F933F934F935F936F937F938F938D
:104060009F93AF93BF93EF93FF93E0910301F09180
:1040700004010995FF91EF91BF91AF919F918F91AD
:104080007F916F915F914F913F912F910F900FBE54
:104090000F901F9018951F920F920FB60F92112438
:1040A0002F933F934F935F936F937F938F939F9340
:1040B000AF93BF93EF93FF93E0910101F091020161
:1040C0000995FF91EF91BF91AF919F918F917F9152
:1040D0006F915F914F913F912F910F900FBE0F9075
:1040E0001F9018951F920F920FB60F9211242F93C5
:1040F0003F934F935F936F937F938F939F93AF9370
:10410000BF93EF93FF938EE494E00E945601FF91DA
:10411000EF91BF91AF919F918F917F916F915F913F
:104120004F913F912F910F900FBE0F901F901895B8
:104130001F920F920FB60F9211242F938F939F937C
:10414000EF93FF93E0915E04F0915F048081E09132
:104150006404F091650482FD1BC090818091670426
:104160008F5F8F7320916804821741F0E09167049C
:10417000F0E0E25BFB4F958F80936704FF91EF9136
:104180009F918F912F910F900FBE0F901F901895B8
:104190008081F4CF1F920F920FB60F9211242F93AC
:1041A0003F934F935F936F937F938F939F93AF93BF
:1041B000BF93EF93FF938091B900887F803609F415
:1041C0004AC0F0F5883209F4A7C018F5803109F427
:1041D0009BC0B8F4882309F4F9C0883009F494C06E
:1041E000FF91EF91BF91AF919F918F917F916F91CF
:1041F0005F914F913F912F910F900FBE0F901F90A5
:104200001895883109F488C0803251F78093CD0326
:1042100014C0803409F49DC040F48033B9F388336E
:10422000F9F68093CD0385ECB0C0803509F485C0E4
:10423000883509F496C0883499F60E941017D0CFBB
:10424000883909F48CC038F5883729F050F488365D
:1042500011F0803729F683E08093CF031092140386
:1042600057C0883809F47BC0803919F0803809F0CC
:10427000B7CF80911403803208F071C0E09114032D
:1042800081E08E0F809314038091BB00F0E0EC502E
:10429000FD4F80833DC0803B39F0E0F4803A09F463
:1042A00079C0883A09F09CCF84E08093CF031092C4
:1042B000F3021092F202E0911703F09118030995AE
:1042C0008091F20281110FC081E08093F20210927E
:1042D000D20209C0803C09F4A6CF883C09F4A3CFE0
:1042E000883B09F07DCFE091F30281E08E0F80934F
:1042F000F302F0E0EE52FD4F80818093BB0090917D
:10430000F3028091F20229C08091AA038093BB003E
:1043100085EC8093BC0064CF9091CC038091CB035B
:10432000981758F5E091CC0381E08E0F8093CC0371
:10433000F0E0E555FC4F8081E9CFE091CC0381E0CE
:104340008E0F8093CC038091BB00F0E0E555FC4FCD
:1043500080839091CC038091CB039817C8F285E8B5
:10436000D8CFE091CC0381E08E0F8093CC03809175
:10437000BB00F0E0E555FC4F80838091CE038111B6
:104380005CCF81E08093A90384EA8093BC00109203
:10439000CF0326CF85EC8093BC001092CF03809191
:1043A0001403803230F4E0911403F0E0EC50FD4F40
:1043B00010826091140370E0E0911503F0911603F0
:1043C00084EF92E00995109214030ACF1092CD0366
:1043D00034CFCF93DF93EEE4F4E01382128248EE01
:1043E00053E060E070E0448355836683778381ED1A
:1043F00091E09183808385EC90E09587848784ECBD
:1044000090E09787868780EC90E0918B808B81ECA1
:1044100090E0938B828B82EC90E0958B848B86EC82
:1044200090E0978B868B118E128E138E148EEBEE8E
:10443000F4E013821282448355836683778383EE8C
:1044400091E091838083E7EFF4E08FE292E0918343
:1044500080831282138214821582EDEFF4E091833F
:1044600080831282138214821582E3E0F5E0918347
:1044700080831282138214821582E9E0F5E0918331
:1044800080831282138214821582EFE0F5E091831B
:1044900080831282138214821582E5E1F5E0918314
:1044A00080831282138214821582EBE1F5E09183FE
:1044B00080831282138214821582E7E2F5E09183F1
:1044C00080831282138214821582E1E2F5E09183E7
:1044D00080831282138214821582EDE2F5E09183CB
:1044E00080831282138214821582ECE9F5E09183B5
:1044F00080831282138214821582EBE6F5E029E7AD
:1045000035E031832083338322832CE935E0358302
:104510002483378326831086258520782587ECE53C
:10452000F5E013821282448355836683778321E00A
:1045300032E03183208324E0248728EE33E036877D
:104540002587C3E3D5E01B821A8225EF31E039834A
:1045500028839C8F8B8F1D8E1E8E1F8E18A28FEF2F
:104560009FEF98A78FA3FD83EC831EA21DA280E07E
:1045700091E00E94DE2E9F838E8380E091E09987F8
:1045800088878FE090E09B878A879D878C87DF9163
:10459000CF910895CF93DF93CDB7DEB72C970FB6A9
:1045A000F894DEBF0FBECDBF789484B5826084BD21
:1045B00084B5816084BD85B5826085BD85B5816027
:1045C00085BD80916E00816080936E0010928100A5
:1045D0008091810082608093810080918100816060
:1045E0008093810080918000816080938000809121
:1045F000B10084608093B1008091B00081608093AD
:10460000B00080917A00846080937A0080917A0073
:10461000826080937A0080917A008E7F80937A0006
:1046200080917A00806880937A001092C10061E0E6
:104630008EE00E94220268EC70E080E090E00E9430
:10464000A60261E08EE00E94500261E088E00E94D4
:10465000500261E08FE00E94500261E080E10E9420
:10466000500262E083E00E94500290E080E00E94ED
:10467000212E80934D04682F88E00E942202109220
:104680008803109287031092F6031092F5030E949C
:1046900043058CEE94E090931803809317038DEEFE
:1046A00094E0909316038093150361E084E00E94E8
:1046B000500260E084E00E94220260E273E080E049
:1046C00090E00E94A60261E084E00E94220260E283
:1046D00073E080E090E00E94A60280917D0381114A
:1046E0002AC0109265031092640388EE93E0A0E064
:1046F000B0E08093660390936703A0936803B09340
:10470000690384E491E090936303809362038FE2F2
:1047100092E0909371038093700310927203109251
:104720007303109274031092750384E080937A03EC
:1047300081E080937D038FE193E0909386038093E3
:10474000850380911E038111ADC060E372E080E0BB
:1047500090E00E94A602DFB6F89400E910E0B4EA07
:10476000EB2EB0E0FB2E80911C03811125C0F801D7
:104770008491F7019491E82FF0E0EE0FFF1FEE58BF
:10478000FF4FA591B4918C91982321F461E08AE0C8
:104790000E94220261E08AE00E9450028CB5806192
:1047A0008CBD8CB580648CBD61E08DE00E945002B0
:1047B00061E08BE00E94500280911C038F5F809328
:1047C0001C03DFBEF8010491E02FF0E0EE0FFF1FA5
:1047D000E458FF4F8591949190931B0380931A03A3
:1047E000F701E490E092190361E08AE00E94500230
:1047F0000E941A0680E591E00E94FF0084E3809306
:104800004C0480E80E94E6060E94120C882309F4FA
:104810000EC388E00E94E6060E94FF0B883009F074
:1048200006C380E10E94E6060E94FF0B803109F07A
:10483000FEC280E00E94E6060E94FF0B182F811145
:10484000F6C241E050E0BE016F5F7F4F8FE190E024
:104850000E948A0A8981833009F0E9C280E480934A
:104860001D0342E06EE170E0812F0E94420742E0AA
:104870006FE170E0812F0E9442071F5F143089F7BB
:1048800040E06EE170E0812F0E94420740E06FE15E
:1048900070E0812F0E9442071F5F183089F781E086
:1048A00080931E0380E591E00E94FF0046E050E007
:1048B00065E071E089E090E00E9436068FE292E0C8
:1048C0009A8389831B821C821D821E82CE010396DD
:1048D0000E9496078091850390918603DC01929651
:1048E0001D921D921D921C929597FC0116A217A273
:1048F00010A611A69A961D921D921D921C929D972C
:1049000040E65AEE60E070E046AB57AB60AF71AF87
:1049100040EA5FE060E070E0DA964D935D936D935E
:104920007C93DD973E9624E1DF011D922A95E9F7FD
:1049300026E0E5E0F1E0DC01189601900D922A9561
:10494000E1F7FC01EE5BFF4F10820E94F519813008
:10495000910509F0D8C280E591E00E94FF00009126
:10496000850310918603B801625F7F4FCE010196E7
:104970000E946812CE0103960E949607B8016A5EF3
:104980007F4FCE0101960E94681244E050E0BE01C4
:104990006D5F7F4F81E090E00E943606B8016E5E49
:1049A0007F4FCE0101960E94681244E050E0BE01A4
:1049B0006D5F7F4F85E090E00E943606B801625E31
:1049C0007F4FCE0101960E9468128B819C81AD8140
:1049D000BE818093230590932405A0932505B09371
:1049E00026050E9481027F7380910B0190910C013A
:1049F0006827792770930C0160930B0162E083E0D4
:104A00000E94500280E59AE0909304018093030194
:104A100080916900837F846080936900E99A8FE2C6
:104A200092E09A8389831B821C821D821E8280E50C
:104A300091E00E94FF0044E050E0BE016D5F7F4FB7
:104A40008FE090E00E948A0A8B819C81AD81BE81BB
:104A5000892B8A2B8B2B91F08AE691E09093550558
:104A6000809354058BE597E0909357058093560506
:104A70008FE19FE190934D0580934C0581E08093F9
:104A80001E0400EC0E94C700882309F44DC00E9458
:104A9000D8026B017C0120913D0530913E05A8EEC6
:104AA000B3E00E94C22E8090470590904805A090E8
:104AB0004905B0904A05A7019601281939094A0904
:104AC0005B0949015A01681579058A059B05B0F013
:104AD0008090430590904405A0904505B090460510
:104AE000A7019601281939094A095B0949015A01A8
:104AF000681579058A059B0508F037C280914B053A
:104B0000882309F404C24CEF5FEF50935B05409398
:104B10005A058091370590913805DC01ED91FC91A3
:104B20000488F589E02D0995E0908503F0908603CF
:104B3000E114F10409F4DCC00E94D8024B015C01CD
:104B40006701BEE3CB0ED11CF60180819181A28169
:104B5000B381A5019401281B390B4A0B5B0BCA01D9
:104B6000B901683E33E0730781059105A0F128EE95
:104B700033E040E050E00E94A02E861A970AA80A6F
:104B8000B90AD6018D929D92AD92BC921397F7010E
:104B900086A597A5A0A9B1A949015A01880C991C1D
:104BA000AA1CBB1C88159905AA05BB0508F0CDC237
:104BB00016A617A610AA11AAF70182A993A9A4A95B
:104BC000B5A988159905AA05BB0508F0C7C212AAA0
:104BD00013AA14AA15AAF70186A597A5A0A9B1A999
:104BE000892B8A2B8B2B09F0C2C2EE5BFF4F808191
:104BF000833009F0BCC284E08083C7010E94F519AC
:104C000001966C01F70182A993A9A4A9B5A9892BE2
:104C10008A2B8B2BA1F4EE5BFF4F8081833011F048
:104C200081110DC01082F7013E9684E1DF011D92D3
:104C30008A95E9F7C7010E94F51903966C01B2E065
:104C4000CB16D10429F0E4E0CE16D10409F046C019
:104C500080E591E00E94FF00E0908503F0908603DC
:104C6000B701625F7F4FCE0101960E946812CE01AC
:104C700003960E949607B7016A5E7F4FCE010196A8
:104C80000E94681244E050E0BE016D5F7F4F81E0FA
:104C900090E00E943606B7016E5E7F4FCE0101960E
:104CA0000E94681244E050E0BE016D5F7F4F85E0D6
:104CB00090E00E943606B701625E7F4FCE010196FA
:104CC0000E9468128B819C81AD81BE8180932305F7
:104CD00090932405A0932505B0932605F1E0CF1607
:104CE000D10421F023E0C216D10411F40E948209FC
:104CF0000E94D802609311047093120480931304ED
:104D000090931404C0900D04D0900E04E0900F0412
:104D1000F09010046C197D098E099F09693B7B4056
:104D20008105910508F452C381E08093F80382E580
:104D30008093F7031092F6031092F50360E08BEE78
:104D400094E00E94D1051091F503113208F037C2AA
:104D50000E9481026B017C018091CF0381110AC204
:104D600082E08093CF0381E08093CE038FEF809326
:104D7000CD031092CC031093CB03A5EDB3E0EBEA87
:104D8000F3E080E0181394C21092AA038091AA0362
:104D9000846A8093AA038091A903813009F08CC2B0
:104DA0001092A9030E9481026B017C018091AA03E9
:104DB0008093BB008091D1039091D203A091D30343
:104DC000B091D403892B8A2B8B2BA1F00E948102F6
:104DD0008090D1039090D203A090D303B090D403DD
:104DE0006C197D098E099F0986169706A806B906D3
:104DF00008F4E1C18091BC0083FDD8CF85EC80939D
:104E0000BC000E9481026B017C018091CF03823043
:104E100009F454C28091CD038F3F09F4D0C1809131
:104E2000CD03803209F4CBC18091CD03C8C187E3A3
:104E300080934C0480E80E94E6060E94120C8823AE
:104E400029F188E00E94E6060E94FF0B8830F1F409
:104E500080E10E94E6060E94FF0B182F8031B1F41A
:104E600080E00E94E6060E94FF0B81110FC041E026
:104E700050E0BE016F5F7F4F89E390E00E948A0A95
:104E80008981843019F410931D0309CD83E3809345
:104E90004C0480E80E94E6060E94120C882371F1FF
:104EA00080E10E94E6060E94FF0B803139F582E125
:104EB0000E94E6060E94FF0B823101F580E00E940D
:104EC000E6060E94FF0B811119C084E080931D0348
:104ED00015E51A8741E050E0BE01665F7F4F8BE128
:104EE00090E00E943606198741E050E0BE01675FFE
:104EF0007F4F8AE190E00E943606D1CC10924C049C
:104F00000E9482097BCD892B09F078CDF9CFE09101
:104F10003905F0913A050083E0913905F0913A05A1
:104F20001182809137059091380560913905709113
:104F30003A05DC01ED91FC910280F381E02D42E025
:104F400050E00995C0924305D0924405E092450592
:104F5000F0924605C0924705D0924805E092490577
:104F6000F0924A0581E080934B058091370590913E
:104F70003805DC01ED91FC910084F185E02D099567
:104F8000892B09F4D1CDCE0101960E9492034B01E9
:104F9000672B09F4D7C0C0924705D0924805E0922C
:104FA0004905F0924A05E0913905F0913A05808172
:104FB000807F803309F0A5C080914C0590914D050C
:104FC000892B09F4B1CD498150E0CA0102968E0FB8
:104FD0009F1FDF01A40FB51F11964C90512C542C2C
:104FE0004424DC016C91460E511C4D5F5F4FBF01A4
:104FF000640F751FA2010E94D630E98180913905A6
:1050000090913A05840D951DE80FF92FF11D12823C
:10501000A0913905B0913A05298130E01901E2E00B
:105020002E0E311C2A0E3B1E1C911670E0914C0571
:10503000F0914D05FC87EB87123009F04EC0C2019C
:10504000820F931FFD01E80FF91F638170E0762F37
:1050500066276480660E772E711C4BEF5FEF421B54
:10506000530B44195509480D591DBC016B5F7F4F07
:105070006A0F7B1FC101EB85FC850995E09139051D
:10508000F0913A0520E42083E0913905F0913A054A
:105090001183E0913905F0913A057282E09139056A
:1050A000F0913A05638280913705909138056091BF
:1050B000390570913A05DC01ED91FC910280F38194
:1050C000E02D44E050E00995C0924305D09244059C
:1050D000E0924505F092460527CD4DEF5FEF421B6C
:1050E000530B44195509480D591D2D5F3F4F240D91
:1050F000351DBD01620F731FC101EB85FC8509954C
:1051000013CD803CC9F420ED2083E0913905F09166
:105110003A051182809137059091380560913905E3
:1051200070913A05DC01ED91FC910280F381E02D54
:1051300042E050E00995F8CC803D09F0F5CC1092A2
:105140004B05F2CC0E94C700EFCC821B930BA40B43
:10515000B50B86A797A7A0ABB1AB2ECD821B930B47
:10516000A40BB50B82AB93ABA4ABB5AB34CDD12CB8
:10517000C12C48CD8091D1039091D203A091D3034B
:10518000B091D403892B8A2B8B2B09F4E5CD0E9497
:1051900081028090D1039090D203A090D303B0906D
:1051A000D4036C197D098E099F0986169706A806F7
:1051B000B90608F0D1CD8091D0030E94610510920C
:1051C000F6031092F5031092F80361E070E080E0BE
:1051D00090E00E94A6020E9481026B017C018091F6
:1051E000CF0381118DC081E08093CF038093CE03E4
:1051F0009FEF9093CD031092CC038093CB038093C9
:10520000AA038091AA03846A8093AA038091A903C8
:10521000813009F0B2C11092A9030E9481026B0192
:105220007C018091AA038093BB008091D10390916F
:10523000D203A091D303B091D403892B8A2B8B2B5B
:10524000A1F00E9481028090D1039090D203A0909F
:10525000D303B090D4036C197D098E099F0986167B
:105260009706A806B90608F46CC08091BC0083FDBF
:10527000D8CF85EC8093BC000E9481026B017C0139
:105280008091CF03813009F47AC18091CC038230C0
:1052900008F097C18091CC03EBEAF3E0A9E8B3E012
:1052A00090E0981709F452C021912D939F5FF9CF98
:1052B0009D9191938F5F66CD85EEA1CD8091D103B5
:1052C0009091D203A091D303B091D403892B8A2B60
:1052D0008B2B09F49ACD0E9481028090D10390908B
:1052E000D203A090D303B090D4036C197D098E092A
:1052F0009F0986169706A806B90608F086CD5BCFEB
:105300008091D1039091D203A091D303B091D403A3
:10531000892B8A2B8B2B09F462CF0E94810280900B
:10532000D1039090D203A090D303B090D4036C1912
:105330007D098E099F0986169706A806B90608F00A
:105340004ECF8091D0030E94610580E010928803C7
:1053500080938703823060F08BEE94E00E94910589
:105360008093FD038BEE94E00E9491058093FE03F1
:105370008091FD039091FE039827892798279093A9
:10538000FC038093FB032091FA038037934008F0DD
:105390001AC121110BC011E01093FA0310931E04DF
:1053A00061E08FE00E9422021093F90380911104C2
:1053B00090911204A0911304B091140480930D04F1
:1053C00090930E04A0930F04B09310040E94D8028F
:1053D00060932304709324048093250490932604FF
:1053E000C0901F04D0902004E0902104F09022048B
:1053F0006C197D098E099F09613D7C4684409105A9
:1054000028F480911E04882309F477C00E94C70005
:1054100081115CC00E94C7008111FAC180913705DB
:1054200090913805DC01ED91FC910688F789E02D1B
:105430000995882309F4D6C081E090E09093420555
:105440008093410587E0EDE1F1E0DE0111960190E6
:105450000D928A95E1F7DE01119685E090E02D919D
:10546000E0913905F0913A05E80FF91F2083019684
:105470008C309105A1F7E0903905F0903A058EEE59
:10548000D7011C968C931C9780913E051D968C939A
:105490001D9780913D051E968C93C0903B05D09042
:1054A0003C05B60182EC91E00E941B2D4196C81686
:1054B000D90608F0CEC08091370590913805DC01FF
:1054C000ED91FC910488F589E02D09950E94C700B3
:1054D000882309F4FBC110921D048091230490914C
:1054E0002404A0912504B091260480931F04909376
:1054F0002004A0932104B09322040E94D802609358
:10550000190470931A0480931B0490931C04C09098
:105510001504D0901604E0901704F09018046C194C
:105520007D098E099F09613E73498440910520F4ED
:1055300080911E048823A1F00E94791E10921E04FF
:105540008091190490911A04A0911B04B0911C043D
:105550008093150490931604A0931704B093180435
:1055600020E030E0232B09F48DCA0E94E501882356
:1055700009F487CA0E94000084CA85EE7BCE809120
:10558000D1039091D203A091D303B091D403892B7E
:105590008A2B8B2B09F474CE0E9481028090D10358
:1055A0009090D203A090D303B090D4036C197D09DE
:1055B0008E099F0986169706A806B90608F060CEE0
:1055C000C0CE82E069CE222309F4F0CE1092FA0315
:1055D00081E080931E0460E08FE00E94220210921E
:1055E000F903E4CE6091540570915505809137051B
:1055F00090913805DC01ED91FC9140915605509158
:1056000057056115710571F00088F189E02D099544
:10561000019709F411CFEEEFFFEFF0935B05E093F4
:105620005A0554CF0684F785E02D2FE232E03A8305
:105630002983C0905005D0905105E0905205F0901C
:105640005305CB82DC82ED82FE82BE016F5F7F4F0D
:10565000DECF4FE050E0B70182EC91E00E94A50060
:105660007C01C0903B05D0903C05B60184E991E0F7
:105670000E941B2D8E0D9F1D0296C816D90608F498
:105680001ACF6091390570913A05A70184E991E03C
:105690000E94A5007C01C0903B05D0903C05B6015E
:1056A00080EC92E00E941B2D8E0D9F1D0296C81665
:1056B000D90608F400CF6091390570913A05A70129
:1056C00080EC92E00E94A5007C01C0903B05D09048
:1056D0003C05B60187EB91E00E941B2D8E0D9F1DAE
:1056E0000296C816D90608F4E6CE60913905709185
:1056F0003A05A70187EB91E00E94A5007C01C090CC
:105700003B05D0903C05B6018EEA91E00E941B2D2E
:105710008E0D9F1D0296C816D90608F4CCCE609156
:10572000390570913A05A7018EEA91E00E94A50023
:10573000AC01455051096091390570913A0580E1FD
:105740000E94E4020E94D8026093430570934405CE
:1057500080934505909346056093470570934805EF
:105760008093490590934A058091370590913805BB
:10577000DC01ED91FC910084F185E02D0995892BE8
:1057800031F50E94D802C0904705D0904805E090BE
:105790004905F0904A059B01AC012C193D094E09C1
:1057A0005F0969017A0120913F0530914005A8EE1B
:1057B000B3E00E94C22EC616D706E806F906A0F28C
:1057C0004CEF5FEF50935B0540935A0574CECE01CA
:1057D00008960E949203643071058105910509F0D5
:1057E0006ACEE0913905F0913A058381811165C057
:1057F0000E94D8026093470570934805809349053D
:1058000090934A0510924B0510925B0510925A0531
:10581000E0903B05F0903C05B7018AE791E00E94DB
:105820001B2D0996E816F906C0F10E94C7008823CF
:10583000A1F18091410590914205019609F443C080
:105840009093420580934105E0913905F0913A0526
:10585000809142058583E0913905F0913A05809168
:10586000410586836091390570913A0547E050E023
:105870008AE791E00E94A500E0913905F0913A0590
:10588000E80FF91F1082AC014450510960913905AD
:1058900070913A0582E80E94E40260913B057091A4
:1058A0003C0588EC92E00E941B2DAC0168EC72E094
:1058B00084E991E00E94E40909CE90E090935B05B1
:1058C00080935A05F8CD81E090E0BACF80911D0415
:1058D0008F5F80931D04863108F4FFCD0E948209FA
:1058E000FCCD8091390590913A050C947A2F8F92D6
:1058F0009F92AF92BF92CF92DF92EF92FF92CF939F
:10590000DF93EC01688179818A819B816115710542
:105910008105910521F464E279ED8BE597E02DE1B5
:1059200033EF41E050E00E94372E49015A019B01BC
:10593000AC01A7EAB1E40E94562E6B017C01ACEEEB
:10594000B4EFA50194010E94642EC60ED71EE81E76
:10595000F91EF7FE06C081E0C81AD108E10880E808
:10596000F80AC882D982EA82FB82C701B6019F7712
:10597000DF91CF91FF90EF90DF90CF90BF90AF90ED
:105980009F908F9008958F929F92AF92BF92CF92E7
:10599000DF92EF92FF9260910D0170910E01809164
:1059A0000F0190911001611571058105910521F498
:1059B00064E279ED8BE597E02DE133EF41E050E0D3
:1059C0000E94372E49015A019B01AC01A7EAB1E4BC
:1059D0000E94562E6B017C01ACEEB4EFA501940140
:1059E0000E94642EC60ED71EE81EF91EF7FE06C0E2
:1059F00081E0C81AD108E10880E8F80AC0920D01D8
:105A0000D0920E01E0920F01F0921001C701B60191
:105A10009F77FF90EF90DF90CF90BF90AF909F90D7
:105A20008F90089560930D0170930E0180930F0184
:105A3000909310010895FC01615070400190011095
:105A4000D8F7809590958E0F9F1F0895E89409C010
:105A500097FB3EF490958095709561957F4F8F4FA1
:105A60009F4F9923A9F0F92F96E9BB279395F695B7
:105A7000879577956795B795F111F8CFFAF4BB0F35
:105A800011F460FF1BC06F5F7F4F8F4F9F4F16C099
:105A9000882311F096E911C0772321F09EE8872F23
:105AA000762F05C0662371F096E8862F70E060E0DF
:105AB0002AF09A95660F771F881FDAF7880F969558
:105AC000879597F908950E94762D0C94E72D0E94F2
:105AD000D92D38F00E94E02D20F0952311F00C9480
